{
  "_format": "hh3-artifact-1",
  "contractName": "VaultV2Working",
  "sourceName": "contracts/VaultV2Working.sol",
  "abi": [
    {
      "inputs": [
        {
          "internalType": "address",
          "name": "_usdcToken",
          "type": "address"
        }
      ],
      "stateMutability": "nonpayable",
      "type": "constructor"
    },
    {
      "inputs": [],
      "name": "ReentrancyGuardReentrantCall",
      "type": "error"
    },
    {
      "anonymous": false,
      "inputs": [
        {
          "indexed": true,
          "internalType": "address",
          "name": "user",
          "type": "address"
        },
        {
          "indexed": false,
          "internalType": "uint256",
          "name": "amount",
          "type": "uint256"
        }
      ],
      "name": "Deposited",
      "type": "event"
    },
    {
      "anonymous": false,
      "inputs": [
        {
          "indexed": true,
          "internalType": "address",
          "name": "user",
          "type": "address"
        },
        {
          "indexed": false,
          "internalType": "uint256",
          "name": "amount",
          "type": "uint256"
        }
      ],
      "name": "Withdrawn",
      "type": "event"
    },
    {
      "inputs": [],
      "name": "FAST_APY",
      "outputs": [
        {
          "internalType": "uint256",
          "name": "",
          "type": "uint256"
        }
      ],
      "stateMutability": "view",
      "type": "function"
    },
    {
      "inputs": [],
      "name": "aUsdcToken",
      "outputs": [
        {
          "internalType": "address",
          "name": "",
          "type": "address"
        }
      ],
      "stateMutability": "view",
      "type": "function"
    },
    {
      "inputs": [],
      "name": "aavePool",
      "outputs": [
        {
          "internalType": "address",
          "name": "",
          "type": "address"
        }
      ],
      "stateMutability": "pure",
      "type": "function"
    },
    {
      "inputs": [
        {
          "internalType": "address",
          "name": "user",
          "type": "address"
        }
      ],
      "name": "calculateYield",
      "outputs": [
        {
          "internalType": "uint256",
          "name": "",
          "type": "uint256"
        }
      ],
      "stateMutability": "view",
      "type": "function"
    },
    {
      "inputs": [
        {
          "internalType": "uint256",
          "name": "amount",
          "type": "uint256"
        }
      ],
      "name": "deposit",
      "outputs": [],
      "stateMutability": "nonpayable",
      "type": "function"
    },
    {
      "inputs": [
        {
          "internalType": "address",
          "name": "",
          "type": "address"
        }
      ],
      "name": "depositTimestamps",
      "outputs": [
        {
          "internalType": "uint256",
          "name": "",
          "type": "uint256"
        }
      ],
      "stateMutability": "view",
      "type": "function"
    },
    {
      "inputs": [],
      "name": "getTotalDeposited",
      "outputs": [
        {
          "internalType": "uint256",
          "name": "",
          "type": "uint256"
        }
      ],
      "stateMutability": "view",
      "type": "function"
    },
    {
      "inputs": [],
      "name": "getTotalValue",
      "outputs": [
        {
          "internalType": "uint256",
          "name": "",
          "type": "uint256"
        }
      ],
      "stateMutability": "view",
      "type": "function"
    },
    {
      "inputs": [
        {
          "internalType": "address",
          "name": "user",
          "type": "address"
        }
      ],
      "name": "getUserBalance",
      "outputs": [
        {
          "internalType": "uint256",
          "name": "",
          "type": "uint256"
        }
      ],
      "stateMutability": "view",
      "type": "function"
    },
    {
      "inputs": [
        {
          "internalType": "address",
          "name": "user",
          "type": "address"
        }
      ],
      "name": "getUserWithdrawableBalance",
      "outputs": [
        {
          "internalType": "uint256",
          "name": "",
          "type": "uint256"
        }
      ],
      "stateMutability": "view",
      "type": "function"
    },
    {
      "inputs": [
        {
          "internalType": "address",
          "name": "user",
          "type": "address"
        }
      ],
      "name": "getUserYield",
      "outputs": [
        {
          "internalType": "uint256",
          "name": "",
          "type": "uint256"
        }
      ],
      "stateMutability": "view",
      "type": "function"
    },
    {
      "inputs": [],
      "name": "totalDeposits",
      "outputs": [
        {
          "internalType": "uint256",
          "name": "",
          "type": "uint256"
        }
      ],
      "stateMutability": "view",
      "type": "function"
    },
    {
      "inputs": [],
      "name": "usdcToken",
      "outputs": [
        {
          "internalType": "contract IERC20",
          "name": "",
          "type": "address"
        }
      ],
      "stateMutability": "view",
      "type": "function"
    },
    {
      "inputs": [
        {
          "internalType": "address",
          "name": "",
          "type": "address"
        }
      ],
      "name": "userBalances",
      "outputs": [
        {
          "internalType": "uint256",
          "name": "",
          "type": "uint256"
        }
      ],
      "stateMutability": "view",
      "type": "function"
    },
    {
      "inputs": [],
      "name": "withdraw",
      "outputs": [],
      "stateMutability": "nonpayable",
      "type": "function"
    }
  ],
  "bytecode": "0x608060405234801562000010575f80fd5b50604051620010b6380380620010b68339818101604052810190620000369190620000e9565b60015f819055508060015f6101000a81548173ffffffffffffffffffffffffffffffffffffffff021916908373ffffffffffffffffffffffffffffffffffffffff1602179055505062000119565b5f80fd5b5f73ffffffffffffffffffffffffffffffffffffffff82169050919050565b5f620000b38262000088565b9050919050565b620000c581620000a7565b8114620000d0575f80fd5b50565b5f81519050620000e381620000ba565b92915050565b5f6020828403121562000101576200010062000084565b5b5f6200011084828501620000d3565b91505092915050565b610f8f80620001275f395ff3fe608060405234801561000f575f80fd5b50600436106100f3575f3560e01c8063567add6411610095578063b6b55f2511610064578063b6b55f2514610287578063caa648b4146102a3578063cc3d6cf7146102c1578063d96ae3ce146102df576100f3565b8063567add64146101fd5780637d8820971461022d578063a03e4bc31461024b578063b68ef55914610269576100f3565b80633ccfd60b116100d15780633ccfd60b146101755780634229abdd1461017f57806347734892146101af57806349d865b9146101df576100f3565b806311eac855146100f7578063240be9441461011557806326224c6414610145575b5f80fd5b6100ff61030f565b60405161010c9190610af3565b60405180910390f35b61012f600480360381019061012a9190610b4b565b610334565b60405161013c9190610b8e565b60405180910390f35b61015f600480360381019061015a9190610b4b565b610349565b60405161016c9190610b8e565b60405180910390f35b61017d61035e565b005b61019960048036038101906101949190610b4b565b6105db565b6040516101a69190610b8e565b60405180910390f35b6101c960048036038101906101c49190610b4b565b6105ec565b6040516101d69190610b8e565b60405180910390f35b6101e7610632565b6040516101f49190610b8e565b60405180910390f35b61021760048036038101906102129190610b4b565b610638565b6040516102249190610b8e565b60405180910390f35b610235610730565b6040516102429190610b8e565b60405180910390f35b610253610736565b6040516102609190610bb6565b60405180910390f35b610271610751565b60405161027e9190610b8e565b60405180910390f35b6102a1600480360381019061029c9190610bf9565b61075a565b005b6102ab61098c565b6040516102b89190610b8e565b60405180910390f35b6102c9610995565b6040516102d69190610bb6565b60405180910390f35b6102f960048036038101906102f49190610b4b565b6109bd565b6040516103069190610b8e565b60405180910390f35b60015f9054906101000a900473ffffffffffffffffffffffffffffffffffffffff1681565b6003602052805f5260405f205f915090505481565b6002602052805f5260405f205f915090505481565b610366610a2c565b5f60025f3373ffffffffffffffffffffffffffffffffffffffff1673ffffffffffffffffffffffffffffffffffffffff1681526020019081526020015f205490505f81116103e9576040517f08c379a00000000000000000000000000000000000000000000000000000000081526004016103e090610c7e565b60405180910390fd5b5f6103f333610638565b90505f81836104029190610cc9565b90505f60025f3373ffffffffffffffffffffffffffffffffffffffff1673ffffffffffffffffffffffffffffffffffffffff1681526020019081526020015f20819055505f60035f3373ffffffffffffffffffffffffffffffffffffffff1673ffffffffffffffffffffffffffffffffffffffff1681526020019081526020015f20819055508260045f8282546104999190610cfc565b925050819055505f60015f9054906101000a900473ffffffffffffffffffffffffffffffffffffffff1673ffffffffffffffffffffffffffffffffffffffff1663a9059cbb33846040518363ffffffff1660e01b81526004016104fd929190610d2f565b6020604051808303815f875af1158015610519573d5f803e3d5ffd5b505050506040513d601f19601f8201168201806040525081019061053d9190610d8b565b90508061057f576040517f08c379a000000000000000000000000000000000000000000000000000000000815260040161057690610e00565b60405180910390fd5b3373ffffffffffffffffffffffffffffffffffffffff167f7084f5476618d8e60b11ef0d7d3f06914655adb8793e28ff7f018d4c76d505d5836040516105c59190610b8e565b60405180910390a2505050506105d9610a70565b565b5f6105e582610638565b9050919050565b5f60025f8373ffffffffffffffffffffffffffffffffffffffff1673ffffffffffffffffffffffffffffffffffffffff1681526020019081526020015f20549050919050565b61271081565b5f8060025f8473ffffffffffffffffffffffffffffffffffffffff1673ffffffffffffffffffffffffffffffffffffffff1681526020019081526020015f205490505f810361068a575f91505061072b565b5f60035f8573ffffffffffffffffffffffffffffffffffffffff1673ffffffffffffffffffffffffffffffffffffffff1681526020019081526020015f205490505f81036106dc575f9250505061072b565b5f81426106e99190610cfc565b90505f6301e133809050612710816107019190610e1e565b82612710866107109190610e1e565b61071a9190610e1e565b6107249190610e8c565b9450505050505b919050565b60045481565b5f736ae43d5257286e850d7572924237f96bdc3d9ea6905090565b5f600454905090565b610762610a2c565b5f81116107a4576040517f08c379a000000000000000000000000000000000000000000000000000000000815260040161079b90610f06565b60405180910390fd5b5f60015f9054906101000a900473ffffffffffffffffffffffffffffffffffffffff1673ffffffffffffffffffffffffffffffffffffffff166323b872dd3330856040518463ffffffff1660e01b815260040161080393929190610f24565b6020604051808303815f875af115801561081f573d5f803e3d5ffd5b505050506040513d601f19601f820116820180604052508101906108439190610d8b565b905080610885576040517f08c379a000000000000000000000000000000000000000000000000000000000815260040161087c90610e00565b60405180910390fd5b8160025f3373ffffffffffffffffffffffffffffffffffffffff1673ffffffffffffffffffffffffffffffffffffffff1681526020019081526020015f205f8282546108d19190610cc9565b925050819055504260035f3373ffffffffffffffffffffffffffffffffffffffff1673ffffffffffffffffffffffffffffffffffffffff1681526020019081526020015f20819055508160045f82825461092b9190610cc9565b925050819055503373ffffffffffffffffffffffffffffffffffffffff167f2da466a7b24304f47e87fa2e1e5a81b9831ce54fec19055ce277ca2f39ba42c4836040516109789190610b8e565b60405180910390a250610989610a70565b50565b5f600454905090565b5f60015f9054906101000a900473ffffffffffffffffffffffffffffffffffffffff16905090565b5f8060025f8473ffffffffffffffffffffffffffffffffffffffff1673ffffffffffffffffffffffffffffffffffffffff1681526020019081526020015f205490505f8103610a0f575f915050610a27565b610a1883610638565b81610a239190610cc9565b9150505b919050565b60025f5403610a67576040517f3ee5aeb500000000000000000000000000000000000000000000000000000000815260040160405180910390fd5b60025f81905550565b60015f81905550565b5f73ffffffffffffffffffffffffffffffffffffffff82169050919050565b5f819050919050565b5f610abb610ab6610ab184610a79565b610a98565b610a79565b9050919050565b5f610acc82610aa1565b9050919050565b5f610add82610ac2565b9050919050565b610aed81610ad3565b82525050565b5f602082019050610b065f830184610ae4565b92915050565b5f80fd5b5f610b1a82610a79565b9050919050565b610b2a81610b10565b8114610b34575f80fd5b50565b5f81359050610b4581610b21565b92915050565b5f60208284031215610b6057610b5f610b0c565b5b5f610b6d84828501610b37565b91505092915050565b5f819050919050565b610b8881610b76565b82525050565b5f602082019050610ba15f830184610b7f565b92915050565b610bb081610b10565b82525050565b5f602082019050610bc95f830184610ba7565b92915050565b610bd881610b76565b8114610be2575f80fd5b50565b5f81359050610bf381610bcf565b92915050565b5f60208284031215610c0e57610c0d610b0c565b5b5f610c1b84828501610be5565b91505092915050565b5f82825260208201905092915050565b7f4e6f2062616c616e636520746f207769746864726177000000000000000000005f82015250565b5f610c68601683610c24565b9150610c7382610c34565b602082019050919050565b5f6020820190508181035f830152610c9581610c5c565b9050919050565b7f4e487b71000000000000000000000000000000000000000000000000000000005f52601160045260245ffd5b5f610cd382610b76565b9150610cde83610b76565b9250828201905080821115610cf657610cf5610c9c565b5b92915050565b5f610d0682610b76565b9150610d1183610b76565b9250828203905081811115610d2957610d28610c9c565b5b92915050565b5f604082019050610d425f830185610ba7565b610d4f6020830184610b7f565b9392505050565b5f8115159050919050565b610d6a81610d56565b8114610d74575f80fd5b50565b5f81519050610d8581610d61565b92915050565b5f60208284031215610da057610d9f610b0c565b5b5f610dad84828501610d77565b91505092915050565b7f4d6f636b2055534443207472616e73666572206661696c6564000000000000005f82015250565b5f610dea601983610c24565b9150610df582610db6565b602082019050919050565b5f6020820190508181035f830152610e1781610dde565b9050919050565b5f610e2882610b76565b9150610e3383610b76565b9250828202610e4181610b76565b91508282048414831517610e5857610e57610c9c565b5b5092915050565b7f4e487b71000000000000000000000000000000000000000000000000000000005f52601260045260245ffd5b5f610e9682610b76565b9150610ea183610b76565b925082610eb157610eb0610e5f565b5b828204905092915050565b7f416d6f756e74206d7573742062652067726561746572207468616e20300000005f82015250565b5f610ef0601d83610c24565b9150610efb82610ebc565b602082019050919050565b5f6020820190508181035f830152610f1d81610ee4565b9050919050565b5f606082019050610f375f830186610ba7565b610f446020830185610ba7565b610f516040830184610b7f565b94935050505056fea264697066735822122021aa1ea2f6020485db0bdb40a0229aacb28d9466f01873c16321c6982da717cd64736f6c63430008140033",
  "linkReferences": {},
  "deployedLinkReferences": {},
  "immutableReferences": {},
  "inputSourceName": "project/contracts/VaultV2Working.sol",
  "buildInfoId": "solc-0_8_20-fe3a7b8f94d751e131cbd1cbf673e6fce8b53d45"
}