{
  "_format": "hh-sol-artifact-1",
  "contractName": "Vault",
  "sourceName": "contracts/Vault.sol",
  "abi": [
    {
      "inputs": [
        {
          "internalType": "address",
          "name": "_usdcToken",
          "type": "address"
        }
      ],
      "stateMutability": "nonpayable",
      "type": "constructor"
    },
    {
      "anonymous": false,
      "inputs": [
        {
          "indexed": true,
          "internalType": "address",
          "name": "user",
          "type": "address"
        },
        {
          "indexed": false,
          "internalType": "uint256",
          "name": "amount",
          "type": "uint256"
        }
      ],
      "name": "Deposited",
      "type": "event"
    },
    {
      "anonymous": false,
      "inputs": [
        {
          "indexed": true,
          "internalType": "address",
          "name": "user",
          "type": "address"
        },
        {
          "indexed": false,
          "internalType": "uint256",
          "name": "amount",
          "type": "uint256"
        }
      ],
      "name": "Withdrawn",
      "type": "event"
    },
    {
      "inputs": [
        {
          "internalType": "uint256",
          "name": "amount",
          "type": "uint256"
        }
      ],
      "name": "deposit",
      "outputs": [],
      "stateMutability": "nonpayable",
      "type": "function"
    },
    {
      "inputs": [
        {
          "internalType": "address",
          "name": "user",
          "type": "address"
        }
      ],
      "name": "getUserBalance",
      "outputs": [
        {
          "internalType": "uint256",
          "name": "",
          "type": "uint256"
        }
      ],
      "stateMutability": "view",
      "type": "function"
    },
    {
      "inputs": [],
      "name": "usdcToken",
      "outputs": [
        {
          "internalType": "contract IERC20",
          "name": "",
          "type": "address"
        }
      ],
      "stateMutability": "view",
      "type": "function"
    },
    {
      "inputs": [
        {
          "internalType": "address",
          "name": "",
          "type": "address"
        }
      ],
      "name": "userBalances",
      "outputs": [
        {
          "internalType": "uint256",
          "name": "",
          "type": "uint256"
        }
      ],
      "stateMutability": "view",
      "type": "function"
    },
    {
      "inputs": [],
      "name": "withdraw",
      "outputs": [],
      "stateMutability": "nonpayable",
      "type": "function"
    }
  ],
  "bytecode": "0x608060405234801561001057600080fd5b50604051610ac6380380610ac6833981810160405281019061003291906100db565b806000806101000a81548173ffffffffffffffffffffffffffffffffffffffff021916908373ffffffffffffffffffffffffffffffffffffffff16021790555050610108565b600080fd5b600073ffffffffffffffffffffffffffffffffffffffff82169050919050565b60006100a88261007d565b9050919050565b6100b88161009d565b81146100c357600080fd5b50565b6000815190506100d5816100af565b92915050565b6000602082840312156100f1576100f0610078565b5b60006100ff848285016100c6565b91505092915050565b6109af806101176000396000f3fe608060405234801561001057600080fd5b50600436106100575760003560e01c806311eac8551461005c57806326224c641461007a5780633ccfd60b146100aa57806347734892146100b4578063b6b55f25146100e4575b600080fd5b610064610100565b60405161007191906105d5565b60405180910390f35b610094600480360381019061008f9190610633565b610124565b6040516100a19190610679565b60405180910390f35b6100b261013c565b005b6100ce60048036038101906100c99190610633565b61033d565b6040516100db9190610679565b60405180910390f35b6100fe60048036038101906100f991906106c0565b610386565b005b60008054906101000a900473ffffffffffffffffffffffffffffffffffffffff1681565b60016020528060005260406000206000915090505481565b6000600160003373ffffffffffffffffffffffffffffffffffffffff1673ffffffffffffffffffffffffffffffffffffffff168152602001908152602001600020549050600081116101c3576040517f08c379a00000000000000000000000000000000000000000000000000000000081526004016101ba9061074a565b60405180910390fd5b6000600160003373ffffffffffffffffffffffffffffffffffffffff1673ffffffffffffffffffffffffffffffffffffffff1681526020019081526020016000208190555060008060009054906101000a900473ffffffffffffffffffffffffffffffffffffffff1673ffffffffffffffffffffffffffffffffffffffff1663a9059cbb33846040518363ffffffff1660e01b8152600401610266929190610779565b6020604051808303816000875af1158015610285573d6000803e3d6000fd5b505050506040513d601f19601f820116820180604052508101906102a991906107da565b9050806102eb576040517f08c379a00000000000000000000000000000000000000000000000000000000081526004016102e290610853565b60405180910390fd5b3373ffffffffffffffffffffffffffffffffffffffff167f7084f5476618d8e60b11ef0d7d3f06914655adb8793e28ff7f018d4c76d505d5836040516103319190610679565b60405180910390a25050565b6000600160008373ffffffffffffffffffffffffffffffffffffffff1673ffffffffffffffffffffffffffffffffffffffff168152602001908152602001600020549050919050565b600081116103c9576040517f08c379a00000000000000000000000000000000000000000000000000000000081526004016103c0906108bf565b60405180910390fd5b60008060009054906101000a900473ffffffffffffffffffffffffffffffffffffffff1673ffffffffffffffffffffffffffffffffffffffff166323b872dd3330856040518463ffffffff1660e01b8152600401610429939291906108df565b6020604051808303816000875af1158015610448573d6000803e3d6000fd5b505050506040513d601f19601f8201168201806040525081019061046c91906107da565b9050806104ae576040517f08c379a00000000000000000000000000000000000000000000000000000000081526004016104a590610853565b60405180910390fd5b81600160003373ffffffffffffffffffffffffffffffffffffffff1673ffffffffffffffffffffffffffffffffffffffff16815260200190815260200160002060008282546104fd9190610945565b925050819055503373ffffffffffffffffffffffffffffffffffffffff167f2da466a7b24304f47e87fa2e1e5a81b9831ce54fec19055ce277ca2f39ba42c48360405161054a9190610679565b60405180910390a25050565b600073ffffffffffffffffffffffffffffffffffffffff82169050919050565b6000819050919050565b600061059b61059661059184610556565b610576565b610556565b9050919050565b60006105ad82610580565b9050919050565b60006105bf826105a2565b9050919050565b6105cf816105b4565b82525050565b60006020820190506105ea60008301846105c6565b92915050565b600080fd5b600061060082610556565b9050919050565b610610816105f5565b811461061b57600080fd5b50565b60008135905061062d81610607565b92915050565b600060208284031215610649576106486105f0565b5b60006106578482850161061e565b91505092915050565b6000819050919050565b61067381610660565b82525050565b600060208201905061068e600083018461066a565b92915050565b61069d81610660565b81146106a857600080fd5b50565b6000813590506106ba81610694565b92915050565b6000602082840312156106d6576106d56105f0565b5b60006106e4848285016106ab565b91505092915050565b600082825260208201905092915050565b7f4e6f2062616c616e636520746f20776974686472617700000000000000000000600082015250565b60006107346016836106ed565b915061073f826106fe565b602082019050919050565b6000602082019050818103600083015261076381610727565b9050919050565b610773816105f5565b82525050565b600060408201905061078e600083018561076a565b61079b602083018461066a565b9392505050565b60008115159050919050565b6107b7816107a2565b81146107c257600080fd5b50565b6000815190506107d4816107ae565b92915050565b6000602082840312156107f0576107ef6105f0565b5b60006107fe848285016107c5565b91505092915050565b7f55534443207472616e73666572206661696c6564000000000000000000000000600082015250565b600061083d6014836106ed565b915061084882610807565b602082019050919050565b6000602082019050818103600083015261086c81610830565b9050919050565b7f416d6f756e74206d7573742062652067726561746572207468616e2030000000600082015250565b60006108a9601d836106ed565b91506108b482610873565b602082019050919050565b600060208201905081810360008301526108d88161089c565b9050919050565b60006060820190506108f4600083018661076a565b610901602083018561076a565b61090e604083018461066a565b949350505050565b7f4e487b7100000000000000000000000000000000000000000000000000000000600052601160045260246000fd5b600061095082610660565b915061095b83610660565b925082820190508082111561097357610972610916565b5b9291505056fea2646970667358221220ac90653c0e4229b7a4a04223081126a1900afea52111abd0ba3d5210c14fba7864736f6c63430008140033",
  "linkReferences": {},
  "deployedLinkReferences": {}
}