{
  "_format": "hh3-artifact-1",
  "contractName": "VaultV2RealAave",
  "sourceName": "contracts/VaultV2RealAave.sol",
  "abi": [
    {
      "inputs": [
        {
          "internalType": "address",
          "name": "_daiToken",
          "type": "address"
        }
      ],
      "stateMutability": "nonpayable",
      "type": "constructor"
    },
    {
      "inputs": [],
      "name": "ReentrancyGuardReentrantCall",
      "type": "error"
    },
    {
      "anonymous": false,
      "inputs": [
        {
          "indexed": true,
          "internalType": "address",
          "name": "user",
          "type": "address"
        },
        {
          "indexed": false,
          "internalType": "uint256",
          "name": "amount",
          "type": "uint256"
        }
      ],
      "name": "Deposited",
      "type": "event"
    },
    {
      "anonymous": false,
      "inputs": [
        {
          "indexed": true,
          "internalType": "address",
          "name": "user",
          "type": "address"
        },
        {
          "indexed": false,
          "internalType": "uint256",
          "name": "amount",
          "type": "uint256"
        }
      ],
      "name": "Withdrawn",
      "type": "event"
    },
    {
      "inputs": [],
      "name": "aDaiToken",
      "outputs": [
        {
          "internalType": "contract IERC20",
          "name": "",
          "type": "address"
        }
      ],
      "stateMutability": "view",
      "type": "function"
    },
    {
      "inputs": [],
      "name": "aavePool",
      "outputs": [
        {
          "internalType": "contract IPool",
          "name": "",
          "type": "address"
        }
      ],
      "stateMutability": "view",
      "type": "function"
    },
    {
      "inputs": [],
      "name": "daiToken",
      "outputs": [
        {
          "internalType": "contract IERC20",
          "name": "",
          "type": "address"
        }
      ],
      "stateMutability": "view",
      "type": "function"
    },
    {
      "inputs": [
        {
          "internalType": "uint256",
          "name": "amount",
          "type": "uint256"
        }
      ],
      "name": "deposit",
      "outputs": [],
      "stateMutability": "nonpayable",
      "type": "function"
    },
    {
      "inputs": [],
      "name": "getADaiToken",
      "outputs": [
        {
          "internalType": "address",
          "name": "",
          "type": "address"
        }
      ],
      "stateMutability": "view",
      "type": "function"
    },
    {
      "inputs": [],
      "name": "getAavePool",
      "outputs": [
        {
          "internalType": "address",
          "name": "",
          "type": "address"
        }
      ],
      "stateMutability": "view",
      "type": "function"
    },
    {
      "inputs": [],
      "name": "getTotalDeposited",
      "outputs": [
        {
          "internalType": "uint256",
          "name": "",
          "type": "uint256"
        }
      ],
      "stateMutability": "view",
      "type": "function"
    },
    {
      "inputs": [],
      "name": "getTotalValue",
      "outputs": [
        {
          "internalType": "uint256",
          "name": "",
          "type": "uint256"
        }
      ],
      "stateMutability": "view",
      "type": "function"
    },
    {
      "inputs": [
        {
          "internalType": "address",
          "name": "user",
          "type": "address"
        }
      ],
      "name": "getUserBalance",
      "outputs": [
        {
          "internalType": "uint256",
          "name": "",
          "type": "uint256"
        }
      ],
      "stateMutability": "view",
      "type": "function"
    },
    {
      "inputs": [
        {
          "internalType": "address",
          "name": "user",
          "type": "address"
        }
      ],
      "name": "getUserWithdrawableBalance",
      "outputs": [
        {
          "internalType": "uint256",
          "name": "",
          "type": "uint256"
        }
      ],
      "stateMutability": "view",
      "type": "function"
    },
    {
      "inputs": [
        {
          "internalType": "address",
          "name": "user",
          "type": "address"
        }
      ],
      "name": "getUserYield",
      "outputs": [
        {
          "internalType": "uint256",
          "name": "",
          "type": "uint256"
        }
      ],
      "stateMutability": "view",
      "type": "function"
    },
    {
      "inputs": [],
      "name": "totalDeposits",
      "outputs": [
        {
          "internalType": "uint256",
          "name": "",
          "type": "uint256"
        }
      ],
      "stateMutability": "view",
      "type": "function"
    },
    {
      "inputs": [
        {
          "internalType": "address",
          "name": "",
          "type": "address"
        }
      ],
      "name": "userBalances",
      "outputs": [
        {
          "internalType": "uint256",
          "name": "",
          "type": "uint256"
        }
      ],
      "stateMutability": "view",
      "type": "function"
    },
    {
      "inputs": [],
      "name": "withdraw",
      "outputs": [],
      "stateMutability": "nonpayable",
      "type": "function"
    }
  ],
  "bytecode": "0x608060405234801562000010575f80fd5b506040516200237a3803806200237a833981810160405281019062000036919062000189565b60015f819055508060015f6101000a81548173ffffffffffffffffffffffffffffffffffffffff021916908373ffffffffffffffffffffffffffffffffffffffff160217905550736ae43d3271ff6888e7fc43fd7321a503ff73895160025f6101000a81548173ffffffffffffffffffffffffffffffffffffffff021916908373ffffffffffffffffffffffffffffffffffffffff1602179055506b0299e1616d458215bb2f7cc860035f6101000a81548173ffffffffffffffffffffffffffffffffffffffff021916908373ffffffffffffffffffffffffffffffffffffffff16021790555050620001b9565b5f80fd5b5f73ffffffffffffffffffffffffffffffffffffffff82169050919050565b5f620001538262000128565b9050919050565b620001658162000147565b811462000170575f80fd5b50565b5f8151905062000183816200015a565b92915050565b5f60208284031215620001a157620001a062000124565b5b5f620001b08482850162000173565b91505092915050565b6121b380620001c75f395ff3fe608060405234801561000f575f80fd5b50600436106100e8575f3560e01c80637d8820971161008a578063b6b55f2511610064578063b6b55f251461023a578063be22f54614610256578063caa648b414610274578063d96ae3ce14610292576100e8565b80637d882097146101e0578063a03e4bc3146101fe578063b68ef5591461021c576100e8565b80634229abdd116100c65780634229abdd146101445780634773489214610174578063597a40e5146101a45780635ce4fa83146101c2576100e8565b806313561b55146100ec57806326224c641461010a5780633ccfd60b1461013a575b5f80fd5b6100f46102c2565b6040516101019190611528565b60405180910390f35b610124600480360381019061011f9190611578565b6102ea565b60405161013191906115bb565b60405180910390f35b6101426102ff565b005b61015e60048036038101906101599190611578565b6108d0565b60405161016b91906115bb565b60405180910390f35b61018e60048036038101906101899190611578565b610a04565b60405161019b91906115bb565b60405180910390f35b6101ac610a4a565b6040516101b99190611528565b60405180910390f35b6101ca610a72565b6040516101d7919061162f565b60405180910390f35b6101e8610a97565b6040516101f591906115bb565b60405180910390f35b610206610a9d565b6040516102139190611668565b60405180910390f35b610224610ac2565b60405161023191906115bb565b60405180910390f35b610254600480360381019061024f91906116ab565b610acb565b005b61025e6112c2565b60405161026b919061162f565b60405180910390f35b61027c6112e7565b60405161028991906115bb565b60405180910390f35b6102ac60048036038101906102a79190611578565b611386565b6040516102b991906115bb565b60405180910390f35b5f60025f9054906101000a900473ffffffffffffffffffffffffffffffffffffffff16905090565b6004602052805f5260405f205f915090505481565b61030761149c565b5f60045f3373ffffffffffffffffffffffffffffffffffffffff1673ffffffffffffffffffffffffffffffffffffffff1681526020019081526020015f205490505f811161038a576040517f08c379a000000000000000000000000000000000000000000000000000000000815260040161038190611730565b60405180910390fd5b5f60035f9054906101000a900473ffffffffffffffffffffffffffffffffffffffff1673ffffffffffffffffffffffffffffffffffffffff166370a08231306040518263ffffffff1660e01b81526004016103e59190611528565b602060405180830381865afa158015610400573d5f803e3d5ffd5b505050506040513d601f19601f820116820180604052508101906104249190611762565b90505f8111610468576040517f08c379a000000000000000000000000000000000000000000000000000000000815260040161045f906117d7565b60405180910390fd5b5f60055482846104789190611822565b6104829190611890565b90505f81116104c6576040517f08c379a00000000000000000000000000000000000000000000000000000000081526004016104bd9061190a565b60405180910390fd5b5f60045f3373ffffffffffffffffffffffffffffffffffffffff1673ffffffffffffffffffffffffffffffffffffffff1681526020019081526020015f20819055508260055f8282546105199190611928565b9250508190555060025f9054906101000a900473ffffffffffffffffffffffffffffffffffffffff1673ffffffffffffffffffffffffffffffffffffffff166369328dec60015f9054906101000a900473ffffffffffffffffffffffffffffffffffffffff1683306040518463ffffffff1660e01b815260040161059f9392919061195b565b6020604051808303815f875af19250505080156105da57506040513d601f19601f820116820180604052508101906105d79190611762565b60015b610752576105e661199c565b806308c379a0036106bb57506105fa611a29565b8061060557506106bd565b8360045f3373ffffffffffffffffffffffffffffffffffffffff1673ffffffffffffffffffffffffffffffffffffffff1681526020019081526020015f20819055508360055f8282546106589190611ab8565b92505081905550806040516020016106709190611ba1565b6040516020818303038152906040526040517f08c379a00000000000000000000000000000000000000000000000000000000081526004016106b29190611bfa565b60405180910390fd5b505b8260045f3373ffffffffffffffffffffffffffffffffffffffff1673ffffffffffffffffffffffffffffffffffffffff1681526020019081526020015f20819055508260055f8282546107109190611ab8565b925050819055506040517f08c379a000000000000000000000000000000000000000000000000000000000815260040161074990611c8a565b60405180910390fd5b5f8111610794576040517f08c379a000000000000000000000000000000000000000000000000000000000815260040161078b90611cf2565b60405180910390fd5b5f60015f9054906101000a900473ffffffffffffffffffffffffffffffffffffffff1673ffffffffffffffffffffffffffffffffffffffff1663a9059cbb33846040518363ffffffff1660e01b81526004016107f1929190611d10565b6020604051808303815f875af115801561080d573d5f803e3d5ffd5b505050506040513d601f19601f820116820180604052508101906108319190611d6c565b905080610873576040517f08c379a000000000000000000000000000000000000000000000000000000000815260040161086a90611de1565b60405180910390fd5b3373ffffffffffffffffffffffffffffffffffffffff167f7084f5476618d8e60b11ef0d7d3f06914655adb8793e28ff7f018d4c76d505d5836040516108b991906115bb565b60405180910390a250505050506108ce6114e0565b565b5f8060045f8473ffffffffffffffffffffffffffffffffffffffff1673ffffffffffffffffffffffffffffffffffffffff1681526020019081526020015f205490505f8103610922575f9150506109ff565b5f60035f9054906101000a900473ffffffffffffffffffffffffffffffffffffffff1673ffffffffffffffffffffffffffffffffffffffff166370a08231306040518263ffffffff1660e01b815260040161097d9190611528565b602060405180830381865afa158015610998573d5f803e3d5ffd5b505050506040513d601f19601f820116820180604052508101906109bc9190611762565b90505f60055482846109ce9190611822565b6109d89190611890565b9050828111156109f85782816109ee9190611928565b93505050506109ff565b5f93505050505b919050565b5f60045f8373ffffffffffffffffffffffffffffffffffffffff1673ffffffffffffffffffffffffffffffffffffffff1681526020019081526020015f20549050919050565b5f60035f9054906101000a900473ffffffffffffffffffffffffffffffffffffffff16905090565b60035f9054906101000a900473ffffffffffffffffffffffffffffffffffffffff1681565b60055481565b60025f9054906101000a900473ffffffffffffffffffffffffffffffffffffffff1681565b5f600554905090565b610ad361149c565b5f8111610b15576040517f08c379a0000000000000000000000000000000000000000000000000000000008152600401610b0c90611e49565b60405180910390fd5b5f60015f9054906101000a900473ffffffffffffffffffffffffffffffffffffffff1673ffffffffffffffffffffffffffffffffffffffff166370a08231336040518263ffffffff1660e01b8152600401610b709190611528565b602060405180830381865afa158015610b8b573d5f803e3d5ffd5b505050506040513d601f19601f82011682018060405250810190610baf9190611762565b905081811015610bf4576040517f08c379a0000000000000000000000000000000000000000000000000000000008152600401610beb90611eb1565b60405180910390fd5b5f60015f9054906101000a900473ffffffffffffffffffffffffffffffffffffffff1673ffffffffffffffffffffffffffffffffffffffff1663dd62ed3e33306040518363ffffffff1660e01b8152600401610c51929190611ecf565b602060405180830381865afa158015610c6c573d5f803e3d5ffd5b505050506040513d601f19601f82011682018060405250810190610c909190611762565b905082811015610cd5576040517f08c379a0000000000000000000000000000000000000000000000000000000008152600401610ccc90611f40565b60405180910390fd5b5f60015f9054906101000a900473ffffffffffffffffffffffffffffffffffffffff1673ffffffffffffffffffffffffffffffffffffffff166323b872dd3330876040518463ffffffff1660e01b8152600401610d3493929190611f5e565b6020604051808303815f875af1158015610d50573d5f803e3d5ffd5b505050506040513d601f19601f82011682018060405250810190610d749190611d6c565b905080610db6576040517f08c379a0000000000000000000000000000000000000000000000000000000008152600401610dad90611de1565b60405180910390fd5b5f60015f9054906101000a900473ffffffffffffffffffffffffffffffffffffffff1673ffffffffffffffffffffffffffffffffffffffff166370a08231306040518263ffffffff1660e01b8152600401610e119190611528565b602060405180830381865afa158015610e2c573d5f803e3d5ffd5b505050506040513d601f19601f82011682018060405250810190610e509190611762565b905084811015610e95576040517f08c379a0000000000000000000000000000000000000000000000000000000008152600401610e8c90611fdd565b60405180910390fd5b60015f9054906101000a900473ffffffffffffffffffffffffffffffffffffffff1673ffffffffffffffffffffffffffffffffffffffff1663095ea7b360025f9054906101000a900473ffffffffffffffffffffffffffffffffffffffff16876040518363ffffffff1660e01b8152600401610f12929190611d10565b6020604051808303815f875af1158015610f2e573d5f803e3d5ffd5b505050506040513d601f19601f82011682018060405250810190610f529190611d6c565b5060025f9054906101000a900473ffffffffffffffffffffffffffffffffffffffff1673ffffffffffffffffffffffffffffffffffffffff1663617ba03760015f9054906101000a900473ffffffffffffffffffffffffffffffffffffffff1687305f6040518563ffffffff1660e01b8152600401610fd49493929190612041565b5f604051808303815f87803b158015610feb575f80fd5b505af1925050508015610ffc575060015b6111fa5761100861199c565b806308c379a003611120575061101c611a29565b806110275750611122565b60015f9054906101000a900473ffffffffffffffffffffffffffffffffffffffff1673ffffffffffffffffffffffffffffffffffffffff1663a9059cbb33886040518363ffffffff1660e01b8152600401611083929190611d10565b6020604051808303815f875af115801561109f573d5f803e3d5ffd5b505050506040513d601f19601f820116820180604052508101906110c39190611d6c565b50806040516020016110d591906120ce565b6040516020818303038152906040526040517f08c379a00000000000000000000000000000000000000000000000000000000081526004016111179190611bfa565b60405180910390fd5b505b60015f9054906101000a900473ffffffffffffffffffffffffffffffffffffffff1673ffffffffffffffffffffffffffffffffffffffff1663a9059cbb33876040518363ffffffff1660e01b815260040161117e929190611d10565b6020604051808303815f875af115801561119a573d5f803e3d5ffd5b505050506040513d601f19601f820116820180604052508101906111be9190611d6c565b506040517f08c379a00000000000000000000000000000000000000000000000000000000081526004016111f19061215f565b60405180910390fd5b8460045f3373ffffffffffffffffffffffffffffffffffffffff1673ffffffffffffffffffffffffffffffffffffffff1681526020019081526020015f205f8282546112469190611ab8565b925050819055508460055f82825461125e9190611ab8565b925050819055503373ffffffffffffffffffffffffffffffffffffffff167f2da466a7b24304f47e87fa2e1e5a81b9831ce54fec19055ce277ca2f39ba42c4866040516112ab91906115bb565b60405180910390a2505050506112bf6114e0565b50565b60015f9054906101000a900473ffffffffffffffffffffffffffffffffffffffff1681565b5f60035f9054906101000a900473ffffffffffffffffffffffffffffffffffffffff1673ffffffffffffffffffffffffffffffffffffffff166370a08231306040518263ffffffff1660e01b81526004016113429190611528565b602060405180830381865afa15801561135d573d5f803e3d5ffd5b505050506040513d601f19601f820116820180604052508101906113819190611762565b905090565b5f8060045f8473ffffffffffffffffffffffffffffffffffffffff1673ffffffffffffffffffffffffffffffffffffffff1681526020019081526020015f205490505f81036113d8575f915050611497565b5f60035f9054906101000a900473ffffffffffffffffffffffffffffffffffffffff1673ffffffffffffffffffffffffffffffffffffffff166370a08231306040518263ffffffff1660e01b81526004016114339190611528565b602060405180830381865afa15801561144e573d5f803e3d5ffd5b505050506040513d601f19601f820116820180604052508101906114729190611762565b90505f60055482846114849190611822565b61148e9190611890565b90508093505050505b919050565b60025f54036114d7576040517f3ee5aeb500000000000000000000000000000000000000000000000000000000815260040160405180910390fd5b60025f81905550565b60015f81905550565b5f73ffffffffffffffffffffffffffffffffffffffff82169050919050565b5f611512826114e9565b9050919050565b61152281611508565b82525050565b5f60208201905061153b5f830184611519565b92915050565b5f604051905090565b5f80fd5b61155781611508565b8114611561575f80fd5b50565b5f813590506115728161154e565b92915050565b5f6020828403121561158d5761158c61154a565b5b5f61159a84828501611564565b91505092915050565b5f819050919050565b6115b5816115a3565b82525050565b5f6020820190506115ce5f8301846115ac565b92915050565b5f819050919050565b5f6115f76115f26115ed846114e9565b6115d4565b6114e9565b9050919050565b5f611608826115dd565b9050919050565b5f611619826115fe565b9050919050565b6116298161160f565b82525050565b5f6020820190506116425f830184611620565b92915050565b5f611652826115fe565b9050919050565b61166281611648565b82525050565b5f60208201905061167b5f830184611659565b92915050565b61168a816115a3565b8114611694575f80fd5b50565b5f813590506116a581611681565b92915050565b5f602082840312156116c0576116bf61154a565b5b5f6116cd84828501611697565b91505092915050565b5f82825260208201905092915050565b7f4e6f2062616c616e636520746f207769746864726177000000000000000000005f82015250565b5f61171a6016836116d6565b9150611725826116e6565b602082019050919050565b5f6020820190508181035f8301526117478161170e565b9050919050565b5f8151905061175c81611681565b92915050565b5f602082840312156117775761177661154a565b5b5f6117848482850161174e565b91505092915050565b7f4e6f20614441492062616c616e636520696e207661756c7400000000000000005f82015250565b5f6117c16018836116d6565b91506117cc8261178d565b602082019050919050565b5f6020820190508181035f8301526117ee816117b5565b9050919050565b7f4e487b71000000000000000000000000000000000000000000000000000000005f52601160045260245ffd5b5f61182c826115a3565b9150611837836115a3565b9250828202611845816115a3565b9150828204841483151761185c5761185b6117f5565b5b5092915050565b7f4e487b71000000000000000000000000000000000000000000000000000000005f52601260045260245ffd5b5f61189a826115a3565b91506118a5836115a3565b9250826118b5576118b4611863565b5b828204905092915050565b7f5573657220686173206e6f2061444149207368617265000000000000000000005f82015250565b5f6118f46016836116d6565b91506118ff826118c0565b602082019050919050565b5f6020820190508181035f830152611921816118e8565b9050919050565b5f611932826115a3565b915061193d836115a3565b9250828203905081811115611955576119546117f5565b5b92915050565b5f60608201905061196e5f830186611519565b61197b60208301856115ac565b6119886040830184611519565b949350505050565b5f8160e01c9050919050565b5f60033d11156119b85760045f803e6119b55f51611990565b90505b90565b5f601f19601f8301169050919050565b7f4e487b71000000000000000000000000000000000000000000000000000000005f52604160045260245ffd5b611a01826119bb565b810181811067ffffffffffffffff82111715611a2057611a1f6119cb565b5b80604052505050565b5f60443d10611ab557611a3a611541565b60043d036004823e80513d602482011167ffffffffffffffff82111715611a62575050611ab5565b808201805167ffffffffffffffff811115611a805750505050611ab5565b80602083010160043d038501811115611a9d575050505050611ab5565b611aac826020018501866119f8565b82955050505050505b90565b5f611ac2826115a3565b9150611acd836115a3565b9250828201905080821115611ae557611ae46117f5565b5b92915050565b5f81905092915050565b7f41617665207769746864726177206661696c65643a20000000000000000000005f82015250565b5f611b29601683611aeb565b9150611b3482611af5565b601682019050919050565b5f81519050919050565b5f5b83811015611b66578082015181840152602081019050611b4b565b5f8484015250505050565b5f611b7b82611b3f565b611b858185611aeb565b9350611b95818560208601611b49565b80840191505092915050565b5f611bab82611b1d565b9150611bb78284611b71565b915081905092915050565b5f611bcc82611b3f565b611bd681856116d6565b9350611be6818560208601611b49565b611bef816119bb565b840191505092915050565b5f6020820190508181035f830152611c128184611bc2565b905092915050565b7f41617665207769746864726177206661696c65643a20756e6b6e6f776e2065725f8201527f726f720000000000000000000000000000000000000000000000000000000000602082015250565b5f611c746023836116d6565b9150611c7f82611c1a565b604082019050919050565b5f6020820190508181035f830152611ca181611c68565b9050919050565b7f4e6f204441492072656365697665642066726f6d2041617665000000000000005f82015250565b5f611cdc6019836116d6565b9150611ce782611ca8565b602082019050919050565b5f6020820190508181035f830152611d0981611cd0565b9050919050565b5f604082019050611d235f830185611519565b611d3060208301846115ac565b9392505050565b5f8115159050919050565b611d4b81611d37565b8114611d55575f80fd5b50565b5f81519050611d6681611d42565b92915050565b5f60208284031215611d8157611d8061154a565b5b5f611d8e84828501611d58565b91505092915050565b7f444149207472616e73666572206661696c6564000000000000000000000000005f82015250565b5f611dcb6013836116d6565b9150611dd682611d97565b602082019050919050565b5f6020820190508181035f830152611df881611dbf565b9050919050565b7f416d6f756e74206d7573742062652067726561746572207468616e20300000005f82015250565b5f611e33601d836116d6565b9150611e3e82611dff565b602082019050919050565b5f6020820190508181035f830152611e6081611e27565b9050919050565b7f496e73756666696369656e74204441492062616c616e636500000000000000005f82015250565b5f611e9b6018836116d6565b9150611ea682611e67565b602082019050919050565b5f6020820190508181035f830152611ec881611e8f565b9050919050565b5f604082019050611ee25f830185611519565b611eef6020830184611519565b9392505050565b7f496e73756666696369656e7420616c6c6f77616e6365000000000000000000005f82015250565b5f611f2a6016836116d6565b9150611f3582611ef6565b602082019050919050565b5f6020820190508181035f830152611f5781611f1e565b9050919050565b5f606082019050611f715f830186611519565b611f7e6020830185611519565b611f8b60408301846115ac565b949350505050565b7f5661756c7420646964206e6f74207265636569766520444149000000000000005f82015250565b5f611fc76019836116d6565b9150611fd282611f93565b602082019050919050565b5f6020820190508181035f830152611ff481611fbb565b9050919050565b5f819050919050565b5f61ffff82169050919050565b5f61202b61202661202184611ffb565b6115d4565b612004565b9050919050565b61203b81612011565b82525050565b5f6080820190506120545f830187611519565b61206160208301866115ac565b61206e6040830185611519565b61207b6060830184612032565b95945050505050565b7f4161766520737570706c79206661696c65643a200000000000000000000000005f82015250565b5f6120b8601483611aeb565b91506120c382612084565b601482019050919050565b5f6120d8826120ac565b91506120e48284611b71565b915081905092915050565b7f4161766520737570706c79206661696c65643a20756e6b6e6f776e206572726f5f8201527f7200000000000000000000000000000000000000000000000000000000000000602082015250565b5f6121496021836116d6565b9150612154826120ef565b604082019050919050565b5f6020820190508181035f8301526121768161213d565b905091905056fea26469706673582212202f554cef80e42710ee567c96acd63c24dea93e960bea7f7d09b6020cadf81b8264736f6c63430008140033",
  "linkReferences": {},
  "deployedLinkReferences": {},
  "immutableReferences": {},
  "inputSourceName": "project/contracts/VaultV2RealAave.sol",
  "buildInfoId": "solc-0_8_20-7db63e3d952627e60c04417eac2a2db4b4475d7b"
}