{
  "_format": "hh3-artifact-1",
  "contractName": "VaultV2RealAave",
  "sourceName": "contracts/VaultV2RealAave.sol",
  "abi": [
    {
      "inputs": [
        {
          "internalType": "address",
          "name": "_mockUSDC",
          "type": "address"
        },
        {
          "internalType": "address",
          "name": "_wrappedMockUSDC",
          "type": "address"
        },
        {
          "internalType": "address",
          "name": "_aavePool",
          "type": "address"
        }
      ],
      "stateMutability": "nonpayable",
      "type": "constructor"
    },
    {
      "inputs": [],
      "name": "ReentrancyGuardReentrantCall",
      "type": "error"
    },
    {
      "anonymous": false,
      "inputs": [
        {
          "indexed": true,
          "internalType": "address",
          "name": "user",
          "type": "address"
        },
        {
          "indexed": false,
          "internalType": "uint256",
          "name": "amount",
          "type": "uint256"
        }
      ],
      "name": "Deposited",
      "type": "event"
    },
    {
      "anonymous": false,
      "inputs": [
        {
          "indexed": true,
          "internalType": "address",
          "name": "user",
          "type": "address"
        },
        {
          "indexed": false,
          "internalType": "uint256",
          "name": "amount",
          "type": "uint256"
        }
      ],
      "name": "Withdrawn",
      "type": "event"
    },
    {
      "inputs": [],
      "name": "aWrappedUSDC",
      "outputs": [
        {
          "internalType": "contract IERC20",
          "name": "",
          "type": "address"
        }
      ],
      "stateMutability": "view",
      "type": "function"
    },
    {
      "inputs": [],
      "name": "aavePool",
      "outputs": [
        {
          "internalType": "contract IPool",
          "name": "",
          "type": "address"
        }
      ],
      "stateMutability": "view",
      "type": "function"
    },
    {
      "inputs": [
        {
          "internalType": "uint256",
          "name": "amount",
          "type": "uint256"
        }
      ],
      "name": "deposit",
      "outputs": [],
      "stateMutability": "nonpayable",
      "type": "function"
    },
    {
      "inputs": [],
      "name": "getTotalDeposited",
      "outputs": [
        {
          "internalType": "uint256",
          "name": "",
          "type": "uint256"
        }
      ],
      "stateMutability": "view",
      "type": "function"
    },
    {
      "inputs": [],
      "name": "getTotalValue",
      "outputs": [
        {
          "internalType": "uint256",
          "name": "",
          "type": "uint256"
        }
      ],
      "stateMutability": "view",
      "type": "function"
    },
    {
      "inputs": [
        {
          "internalType": "address",
          "name": "user",
          "type": "address"
        }
      ],
      "name": "getUserBalance",
      "outputs": [
        {
          "internalType": "uint256",
          "name": "",
          "type": "uint256"
        }
      ],
      "stateMutability": "view",
      "type": "function"
    },
    {
      "inputs": [
        {
          "internalType": "address",
          "name": "user",
          "type": "address"
        }
      ],
      "name": "getUserWithdrawableBalance",
      "outputs": [
        {
          "internalType": "uint256",
          "name": "",
          "type": "uint256"
        }
      ],
      "stateMutability": "view",
      "type": "function"
    },
    {
      "inputs": [
        {
          "internalType": "address",
          "name": "user",
          "type": "address"
        }
      ],
      "name": "getUserYield",
      "outputs": [
        {
          "internalType": "uint256",
          "name": "",
          "type": "uint256"
        }
      ],
      "stateMutability": "view",
      "type": "function"
    },
    {
      "inputs": [],
      "name": "mockUSDC",
      "outputs": [
        {
          "internalType": "contract IERC20",
          "name": "",
          "type": "address"
        }
      ],
      "stateMutability": "view",
      "type": "function"
    },
    {
      "inputs": [],
      "name": "totalDeposits",
      "outputs": [
        {
          "internalType": "uint256",
          "name": "",
          "type": "uint256"
        }
      ],
      "stateMutability": "view",
      "type": "function"
    },
    {
      "inputs": [
        {
          "internalType": "address",
          "name": "",
          "type": "address"
        }
      ],
      "name": "userBalances",
      "outputs": [
        {
          "internalType": "uint256",
          "name": "",
          "type": "uint256"
        }
      ],
      "stateMutability": "view",
      "type": "function"
    },
    {
      "inputs": [],
      "name": "withdraw",
      "outputs": [],
      "stateMutability": "nonpayable",
      "type": "function"
    },
    {
      "inputs": [],
      "name": "wrappedMockUSDC",
      "outputs": [
        {
          "internalType": "contract IERC20",
          "name": "",
          "type": "address"
        }
      ],
      "stateMutability": "view",
      "type": "function"
    }
  ],
  "bytecode": "0x608060405234801562000010575f80fd5b50604051620016e4380380620016e48339818101604052810190620000369190620001bf565b60015f819055508260015f6101000a81548173ffffffffffffffffffffffffffffffffffffffff021916908373ffffffffffffffffffffffffffffffffffffffff1602179055508160025f6101000a81548173ffffffffffffffffffffffffffffffffffffffff021916908373ffffffffffffffffffffffffffffffffffffffff1602179055508060035f6101000a81548173ffffffffffffffffffffffffffffffffffffffff021916908373ffffffffffffffffffffffffffffffffffffffff160217905550735414bd0882b4646b5a778350b1c84ab69e62773560045f6101000a81548173ffffffffffffffffffffffffffffffffffffffff021916908373ffffffffffffffffffffffffffffffffffffffff16021790555050505062000218565b5f80fd5b5f73ffffffffffffffffffffffffffffffffffffffff82169050919050565b5f62000189826200015e565b9050919050565b6200019b816200017d565b8114620001a6575f80fd5b50565b5f81519050620001b98162000190565b92915050565b5f805f60608486031215620001d957620001d86200015a565b5b5f620001e886828701620001a9565b9350506020620001fb86828701620001a9565b92505060406200020e86828701620001a9565b9150509250925092565b6114be80620002265f395ff3fe608060405234801561000f575f80fd5b50600436106100cd575f3560e01c80638c06b6cb1161008a578063b6b55f2511610064578063b6b55f2514610201578063caa648b41461021d578063d96ae3ce1461023b578063ee4676781461026b576100cd565b80638c06b6cb146101a7578063a03e4bc3146101c5578063b68ef559146101e3576100cd565b806326224c64146100d15780633ccfd60b146101015780634229abdd1461010b578063474db8351461013b57806347734892146101595780637d88209714610189575b5f80fd5b6100eb60048036038101906100e69190610ed0565b610289565b6040516100f89190610f13565b60405180910390f35b61010961029e565b005b61012560048036038101906101209190610ed0565b610639565b6040516101329190610f13565b60405180910390f35b61014361076d565b6040516101509190610f87565b60405180910390f35b610173600480360381019061016e9190610ed0565b610792565b6040516101809190610f13565b60405180910390f35b6101916107d8565b60405161019e9190610f13565b60405180910390f35b6101af6107de565b6040516101bc9190610f87565b60405180910390f35b6101cd610803565b6040516101da9190610fc0565b60405180910390f35b6101eb610828565b6040516101f89190610f13565b60405180910390f35b61021b60048036038101906102169190611003565b610831565b005b610225610c4b565b6040516102329190610f13565b60405180910390f35b61025560048036038101906102509190610ed0565b610cea565b6040516102629190610f13565b60405180910390f35b610273610e00565b6040516102809190610f87565b60405180910390f35b6005602052805f5260405f205f915090505481565b6102a6610e25565b5f60055f3373ffffffffffffffffffffffffffffffffffffffff1673ffffffffffffffffffffffffffffffffffffffff1681526020019081526020015f205490505f8111610329576040517f08c379a000000000000000000000000000000000000000000000000000000000815260040161032090611088565b60405180910390fd5b5f60055f3373ffffffffffffffffffffffffffffffffffffffff1673ffffffffffffffffffffffffffffffffffffffff1681526020019081526020015f20819055508060065f82825461037c91906110d3565b925050819055505f60045f9054906101000a900473ffffffffffffffffffffffffffffffffffffffff1673ffffffffffffffffffffffffffffffffffffffff166370a08231306040518263ffffffff1660e01b81526004016103de9190611115565b602060405180830381865afa1580156103f9573d5f803e3d5ffd5b505050506040513d601f19601f8201168201806040525081019061041d9190611142565b90505f600654828461042f919061116d565b61043991906111db565b90505f60035f9054906101000a900473ffffffffffffffffffffffffffffffffffffffff1673ffffffffffffffffffffffffffffffffffffffff166369328dec60025f9054906101000a900473ffffffffffffffffffffffffffffffffffffffff1684306040518463ffffffff1660e01b81526004016104bb9392919061120b565b6020604051808303815f875af11580156104d7573d5f803e3d5ffd5b505050506040513d601f19601f820116820180604052508101906104fb9190611142565b90505f60015f9054906101000a900473ffffffffffffffffffffffffffffffffffffffff1673ffffffffffffffffffffffffffffffffffffffff1663a9059cbb33846040518363ffffffff1660e01b815260040161055a929190611240565b6020604051808303815f875af1158015610576573d5f803e3d5ffd5b505050506040513d601f19601f8201168201806040525081019061059a919061129c565b9050806105dc576040517f08c379a00000000000000000000000000000000000000000000000000000000081526004016105d390611311565b60405180910390fd5b3373ffffffffffffffffffffffffffffffffffffffff167f7084f5476618d8e60b11ef0d7d3f06914655adb8793e28ff7f018d4c76d505d5836040516106229190610f13565b60405180910390a25050505050610637610e69565b565b5f8060055f8473ffffffffffffffffffffffffffffffffffffffff1673ffffffffffffffffffffffffffffffffffffffff1681526020019081526020015f205490505f810361068b575f915050610768565b5f60045f9054906101000a900473ffffffffffffffffffffffffffffffffffffffff1673ffffffffffffffffffffffffffffffffffffffff166370a08231306040518263ffffffff1660e01b81526004016106e69190611115565b602060405180830381865afa158015610701573d5f803e3d5ffd5b505050506040513d601f19601f820116820180604052508101906107259190611142565b90505f6006548284610737919061116d565b61074191906111db565b90508281111561076157828161075791906110d3565b9350505050610768565b5f93505050505b919050565b60045f9054906101000a900473ffffffffffffffffffffffffffffffffffffffff1681565b5f60055f8373ffffffffffffffffffffffffffffffffffffffff1673ffffffffffffffffffffffffffffffffffffffff1681526020019081526020015f20549050919050565b60065481565b60025f9054906101000a900473ffffffffffffffffffffffffffffffffffffffff1681565b60035f9054906101000a900473ffffffffffffffffffffffffffffffffffffffff1681565b5f600654905090565b610839610e25565b5f811161087b576040517f08c379a000000000000000000000000000000000000000000000000000000000815260040161087290611379565b60405180910390fd5b5f60015f9054906101000a900473ffffffffffffffffffffffffffffffffffffffff1673ffffffffffffffffffffffffffffffffffffffff166323b872dd3330856040518463ffffffff1660e01b81526004016108da93929190611397565b6020604051808303815f875af11580156108f6573d5f803e3d5ffd5b505050506040513d601f19601f8201168201806040525081019061091a919061129c565b90508061095c576040517f08c379a000000000000000000000000000000000000000000000000000000000815260040161095390611311565b60405180910390fd5b60015f9054906101000a900473ffffffffffffffffffffffffffffffffffffffff1673ffffffffffffffffffffffffffffffffffffffff1663095ea7b360025f9054906101000a900473ffffffffffffffffffffffffffffffffffffffff16846040518363ffffffff1660e01b81526004016109d9929190611240565b6020604051808303815f875af11580156109f5573d5f803e3d5ffd5b505050506040513d601f19601f82011682018060405250810190610a19919061129c565b5060025f9054906101000a900473ffffffffffffffffffffffffffffffffffffffff1673ffffffffffffffffffffffffffffffffffffffff1663095ea7b360035f9054906101000a900473ffffffffffffffffffffffffffffffffffffffff16846040518363ffffffff1660e01b8152600401610a97929190611240565b6020604051808303815f875af1158015610ab3573d5f803e3d5ffd5b505050506040513d601f19601f82011682018060405250810190610ad7919061129c565b5060035f9054906101000a900473ffffffffffffffffffffffffffffffffffffffff1673ffffffffffffffffffffffffffffffffffffffff1663617ba03760025f9054906101000a900473ffffffffffffffffffffffffffffffffffffffff1684305f6040518563ffffffff1660e01b8152600401610b599493929190611412565b5f604051808303815f87803b158015610b70575f80fd5b505af1158015610b82573d5f803e3d5ffd5b505050508160055f3373ffffffffffffffffffffffffffffffffffffffff1673ffffffffffffffffffffffffffffffffffffffff1681526020019081526020015f205f828254610bd29190611455565b925050819055508160065f828254610bea9190611455565b925050819055503373ffffffffffffffffffffffffffffffffffffffff167f2da466a7b24304f47e87fa2e1e5a81b9831ce54fec19055ce277ca2f39ba42c483604051610c379190610f13565b60405180910390a250610c48610e69565b50565b5f60045f9054906101000a900473ffffffffffffffffffffffffffffffffffffffff1673ffffffffffffffffffffffffffffffffffffffff166370a08231306040518263ffffffff1660e01b8152600401610ca69190611115565b602060405180830381865afa158015610cc1573d5f803e3d5ffd5b505050506040513d601f19601f82011682018060405250810190610ce59190611142565b905090565b5f8060055f8473ffffffffffffffffffffffffffffffffffffffff1673ffffffffffffffffffffffffffffffffffffffff1681526020019081526020015f205490505f8103610d3c575f915050610dfb565b5f60045f9054906101000a900473ffffffffffffffffffffffffffffffffffffffff1673ffffffffffffffffffffffffffffffffffffffff166370a08231306040518263ffffffff1660e01b8152600401610d979190611115565b602060405180830381865afa158015610db2573d5f803e3d5ffd5b505050506040513d601f19601f82011682018060405250810190610dd69190611142565b90505f6006548284610de8919061116d565b610df291906111db565b90508093505050505b919050565b60015f9054906101000a900473ffffffffffffffffffffffffffffffffffffffff1681565b60025f5403610e60576040517f3ee5aeb500000000000000000000000000000000000000000000000000000000815260040160405180910390fd5b60025f81905550565b60015f81905550565b5f80fd5b5f73ffffffffffffffffffffffffffffffffffffffff82169050919050565b5f610e9f82610e76565b9050919050565b610eaf81610e95565b8114610eb9575f80fd5b50565b5f81359050610eca81610ea6565b92915050565b5f60208284031215610ee557610ee4610e72565b5b5f610ef284828501610ebc565b91505092915050565b5f819050919050565b610f0d81610efb565b82525050565b5f602082019050610f265f830184610f04565b92915050565b5f819050919050565b5f610f4f610f4a610f4584610e76565b610f2c565b610e76565b9050919050565b5f610f6082610f35565b9050919050565b5f610f7182610f56565b9050919050565b610f8181610f67565b82525050565b5f602082019050610f9a5f830184610f78565b92915050565b5f610faa82610f56565b9050919050565b610fba81610fa0565b82525050565b5f602082019050610fd35f830184610fb1565b92915050565b610fe281610efb565b8114610fec575f80fd5b50565b5f81359050610ffd81610fd9565b92915050565b5f6020828403121561101857611017610e72565b5b5f61102584828501610fef565b91505092915050565b5f82825260208201905092915050565b7f4e6f2062616c616e636520746f207769746864726177000000000000000000005f82015250565b5f61107260168361102e565b915061107d8261103e565b602082019050919050565b5f6020820190508181035f83015261109f81611066565b9050919050565b7f4e487b71000000000000000000000000000000000000000000000000000000005f52601160045260245ffd5b5f6110dd82610efb565b91506110e883610efb565b9250828203905081811115611100576110ff6110a6565b5b92915050565b61110f81610e95565b82525050565b5f6020820190506111285f830184611106565b92915050565b5f8151905061113c81610fd9565b92915050565b5f6020828403121561115757611156610e72565b5b5f6111648482850161112e565b91505092915050565b5f61117782610efb565b915061118283610efb565b925082820261119081610efb565b915082820484148315176111a7576111a66110a6565b5b5092915050565b7f4e487b71000000000000000000000000000000000000000000000000000000005f52601260045260245ffd5b5f6111e582610efb565b91506111f083610efb565b925082611200576111ff6111ae565b5b828204905092915050565b5f60608201905061121e5f830186611106565b61122b6020830185610f04565b6112386040830184611106565b949350505050565b5f6040820190506112535f830185611106565b6112606020830184610f04565b9392505050565b5f8115159050919050565b61127b81611267565b8114611285575f80fd5b50565b5f8151905061129681611272565b92915050565b5f602082840312156112b1576112b0610e72565b5b5f6112be84828501611288565b91505092915050565b7f4d6f636b2055534443207472616e73666572206661696c6564000000000000005f82015250565b5f6112fb60198361102e565b9150611306826112c7565b602082019050919050565b5f6020820190508181035f830152611328816112ef565b9050919050565b7f416d6f756e74206d7573742062652067726561746572207468616e20300000005f82015250565b5f611363601d8361102e565b915061136e8261132f565b602082019050919050565b5f6020820190508181035f83015261139081611357565b9050919050565b5f6060820190506113aa5f830186611106565b6113b76020830185611106565b6113c46040830184610f04565b949350505050565b5f819050919050565b5f61ffff82169050919050565b5f6113fc6113f76113f2846113cc565b610f2c565b6113d5565b9050919050565b61140c816113e2565b82525050565b5f6080820190506114255f830187611106565b6114326020830186610f04565b61143f6040830185611106565b61144c6060830184611403565b95945050505050565b5f61145f82610efb565b915061146a83610efb565b9250828201905080821115611482576114816110a6565b5b9291505056fea2646970667358221220c00417f2282a11d2d543889e35f3b3fc8522d69771498de5a84f3a6e1691c89c64736f6c63430008140033",
  "linkReferences": {},
  "deployedLinkReferences": {},
  "immutableReferences": {},
  "inputSourceName": "project/contracts/VaultV2RealAave.sol",
  "buildInfoId": "solc-0_8_20-9426c5dbf43211ee9fff9d39bc45a6c4628d64aa"
}